{
  "address": "0xbA7b826A12658F7616392ab4654dF9161532d5be",
  "abi": [
    {
      "anonymous": false,
      "inputs": [
        {
          "indexed": true,
          "internalType": "address",
          "name": "previousOwner",
          "type": "address"
        },
        {
          "indexed": true,
          "internalType": "address",
          "name": "newOwner",
          "type": "address"
        }
      ],
      "name": "OwnershipTransferred",
      "type": "event"
    },
    {
      "anonymous": false,
      "inputs": [
        {
          "indexed": true,
          "internalType": "address",
          "name": "token0",
          "type": "address"
        },
        {
          "indexed": true,
          "internalType": "address",
          "name": "token1",
          "type": "address"
        },
        {
          "indexed": false,
          "internalType": "address",
          "name": "pair",
          "type": "address"
        },
        {
          "indexed": false,
          "internalType": "uint256",
          "name": "pairCount",
          "type": "uint256"
        }
      ],
      "name": "PairCreated",
      "type": "event"
    },
    {
      "inputs": [
        {
          "internalType": "uint256",
          "name": "",
          "type": "uint256"
        }
      ],
      "name": "allPairs",
      "outputs": [
        {
          "internalType": "address",
          "name": "",
          "type": "address"
        }
      ],
      "stateMutability": "view",
      "type": "function"
    },
    {
      "inputs": [],
      "name": "allPairsLength",
      "outputs": [
        {
          "internalType": "uint256",
          "name": "",
          "type": "uint256"
        }
      ],
      "stateMutability": "view",
      "type": "function"
    },
    {
      "inputs": [
        {
          "internalType": "address",
          "name": "tokenA",
          "type": "address"
        },
        {
          "internalType": "address",
          "name": "tokenB",
          "type": "address"
        }
      ],
      "name": "createPair",
      "outputs": [
        {
          "internalType": "address",
          "name": "pair",
          "type": "address"
        }
      ],
      "stateMutability": "nonpayable",
      "type": "function"
    },
    {
      "inputs": [
        {
          "internalType": "address",
          "name": "",
          "type": "address"
        },
        {
          "internalType": "address",
          "name": "",
          "type": "address"
        }
      ],
      "name": "getPair",
      "outputs": [
        {
          "internalType": "address",
          "name": "",
          "type": "address"
        }
      ],
      "stateMutability": "view",
      "type": "function"
    },
    {
      "inputs": [
        {
          "internalType": "uint256",
          "name": "index",
          "type": "uint256"
        }
      ],
      "name": "getPairAt",
      "outputs": [
        {
          "internalType": "address",
          "name": "",
          "type": "address"
        }
      ],
      "stateMutability": "view",
      "type": "function"
    },
    {
      "inputs": [],
      "name": "owner",
      "outputs": [
        {
          "internalType": "address",
          "name": "",
          "type": "address"
        }
      ],
      "stateMutability": "view",
      "type": "function"
    },
    {
      "inputs": [],
      "name": "renounceOwnership",
      "outputs": [],
      "stateMutability": "nonpayable",
      "type": "function"
    },
    {
      "inputs": [
        {
          "internalType": "address",
          "name": "newOwner",
          "type": "address"
        }
      ],
      "name": "transferOwnership",
      "outputs": [],
      "stateMutability": "nonpayable",
      "type": "function"
    }
  ],
  "transactionHash": "0x4fb66d522ddd8c76170bdb8d3dd5272889f83f3a05cbc25344ca7b91d16558e5",
  "args": [],
  "numDeployments": 1,
  "solcInputHash": "e718c74148a40040a0d42084984afec7",
  "bytecode": "0x608060405234801561001057600080fd5b5061001a3361001f565b61006f565b600080546001600160a01b038381166001600160a01b0319831681178455604051919092169283917f8be0079c531659141344cd1fd0a4f28419497f9722a3daafe3b4186f6b6457e09190a35050565b611a428061007e6000396000f3fe608060405234801561001057600080fd5b50600436106100885760003560e01c80638da5cb5b1161005b5780638da5cb5b146100eb578063c9c65396146100fc578063e6a439051461010f578063f2fde38b1461014357600080fd5b80631e3dd18b1461008d5780633d9e2edb146100bd578063574f2ba3146100d0578063715018a6146100e1575b600080fd5b6100a061009b366004610544565b610156565b6040516001600160a01b0390911681526020015b60405180910390f35b6100a06100cb366004610544565b610180565b6002546040519081526020016100b4565b6100e96101b0565b005b6000546001600160a01b03166100a0565b6100a061010a366004610579565b6101c4565b6100a061011d366004610579565b60016020908152600092835260408084209091529082529020546001600160a01b031681565b6100e96101513660046105ac565b610414565b6002818154811061016657600080fd5b6000918252602090912001546001600160a01b0316905081565b600060028281548110610195576101956105ce565b6000918252602090912001546001600160a01b031692915050565b6101b861048d565b6101c260006104e7565b565b60006001600160a01b038316158015906101e657506001600160a01b03821615155b61022f5760405162461bcd60e51b8152602060048201526015602482015274496e76616c696420746f6b656e206164647265737360581b60448201526064015b60405180910390fd5b816001600160a01b0316836001600160a01b0316036102905760405162461bcd60e51b815260206004820152601860248201527f546f6b656e73206d75737420626520646966666572656e7400000000000000006044820152606401610226565b6001600160a01b038381166000908152600160209081526040808320868516845290915290205416156102fb5760405162461bcd60e51b81526020600482015260136024820152725061697220616c72656164792065786973747360681b6044820152606401610226565b6000838360405161030b90610537565b6001600160a01b03928316815291166020820152604001604051809103906000f08015801561033e573d6000803e3d6000fd5b506001600160a01b0385811660008181526001602081815260408084208a871680865290835281852080546001600160a01b0319908116988a1698891790915584845282862087875284528286208054821689179055600280549586018155958690527f405787fa12a823e0f2b7631cc41b3ba8828b3321ca811111fa75cd3aa3bb5ace90940180549094168717909355925483519586529085015293955085945090917f0d3648bd0f6ba80134a33ba9275ac585d9d315f0ad8355cddefde31afa28d0e9910160405180910390a35092915050565b61041c61048d565b6001600160a01b0381166104815760405162461bcd60e51b815260206004820152602660248201527f4f776e61626c653a206e6577206f776e657220697320746865207a65726f206160448201526564647265737360d01b6064820152608401610226565b61048a816104e7565b50565b6000546001600160a01b031633146101c25760405162461bcd60e51b815260206004820181905260248201527f4f776e61626c653a2063616c6c6572206973206e6f7420746865206f776e65726044820152606401610226565b600080546001600160a01b038381166001600160a01b0319831681178455604051919092169283917f8be0079c531659141344cd1fd0a4f28419497f9722a3daafe3b4186f6b6457e09190a35050565b611428806105e583390190565b60006020828403121561055657600080fd5b5035919050565b80356001600160a01b038116811461057457600080fd5b919050565b6000806040838503121561058c57600080fd5b6105958361055d565b91506105a36020840161055d565b90509250929050565b6000602082840312156105be57600080fd5b6105c78261055d565b9392505050565b634e487b7160e01b600052603260045260246000fdfe608060405234801561001057600080fd5b506040516200142838038062001428833981016040819052610031916100d7565b61003a3361006b565b600180546001600160a01b039384166001600160a01b0319918216179091556002805492909316911617905561010a565b600080546001600160a01b038381166001600160a01b0319831681178455604051919092169283917f8be0079c531659141344cd1fd0a4f28419497f9722a3daafe3b4186f6b6457e09190a35050565b80516001600160a01b03811681146100d257600080fd5b919050565b600080604083850312156100ea57600080fd5b6100f3836100bb565b9150610101602084016100bb565b90509250929050565b61130e806200011a6000396000f3fe608060405234801561001057600080fd5b50600436106101585760003560e01c80638da5cb5b116100c3578063c68f368c1161007c578063c68f368c146102c8578063d21220a7146102d1578063d294f093146102e4578063d73792a9146102ec578063dbbdd935146102f5578063f2fde38b1461031e57600080fd5b80638da5cb5b146102555780639c8f9f23146102665780639cd441da146102795780639f1d0f591461028c578063b02cb8de1461029f578063b8c876b1146102a857600080fd5b80635a76f25e116101155780635a76f25e146101fc5780635df45a37146102055780636a6f66e614610210578063715018a614610223578063768aebde1461022d5780638ba601181461023557600080fd5b80630902f1ac1461015d5780630dfe16811461017e57806315770f92146101a95780631befa6db146101c0578063274f8127146101d3578063443cb4bc146101f3575b600080fd5b6003546004545b604080519283526020830191909152015b60405180910390f35b600154610191906001600160a01b031681565b6040516001600160a01b039091168152602001610175565b6101b260055481565b604051908152602001610175565b6101b26101ce36600461111b565b610331565b6101b26101e1366004611145565b60086020526000908152604090205481565b6101b260035481565b6101b260045481565b600654600754610164565b61016461021e366004611145565b6103d0565b61022b6104ab565b005b6101b2600381565b6101b2610243366004611145565b60096020526000908152604090205481565b6000546001600160a01b0316610191565b61022b610274366004611160565b6104bf565b61022b610287366004611179565b61064f565b61022b61029a36600461119b565b610819565b6101b260065481565b6101b26102b6366004611145565b600a6020526000908152604090205481565b6101b260075481565b600254610191906001600160a01b031681565b61022b610b04565b6101b26103e881565b6101b2610303366004611145565b6001600160a01b03166000908152600a602052604090205490565b61022b61032c366004611145565b610cb9565b600154600090819081906001600160a01b038681169116146103585760045460035461035f565b6003546004545b915091508160001480610370575080155b15610380576000925050506103ca565b60006103e86103906003826111e4565b61039a90876111f7565b6103a4919061120e565b90506103b08184611230565b6103ba83836111f7565b6103c4919061120e565b93505050505b92915050565b6000806005546000036103e857506000928392509050565b6005546001600160a01b0384166000908152600a6020526040812054909190610413906127106111f7565b61041d919061120e565b6001600160a01b038516600090815260086020526040902054600654919250906127109061044c9084906111f7565b610456919061120e565b61046091906111e4565b6001600160a01b038516600090815260096020526040902054600754919450906127109061048f9084906111f7565b610499919061120e565b6104a391906111e4565b915050915091565b6104b3610d32565b6104bd6000610d8c565b565b336000908152600a602052604090205481111561051c5760405162461bcd60e51b8152602060048201526016602482015275496e73756666696369656e74206c697175696469747960501b60448201526064015b60405180910390fd5b60006005546003548361052f91906111f7565b610539919061120e565b905060006005546004548461054e91906111f7565b610558919061120e565b336000908152600a602052604081208054929350859290919061057c9084906111e4565b92505081905550826005600082825461059591906111e4565b9250508190555081600360008282546105ae91906111e4565b9250508190555080600460008282546105c791906111e4565b909155505081156105e9576001546105e9906001600160a01b03163384610ddc565b801561060657600254610606906001600160a01b03163383610ddc565b604080518381526020810183905290810184905233907f1dc8bb69df2b8e91fbdcbfcf93d951b3f0000f085a95fe3f7946d6161439245d906060015b60405180910390a2505050565b6005548290829060000361068357600382905560048190556005829055336000908152600a60205260409020829055610788565b60006003546004548461069691906111f7565b6106a0919061120e565b90508381116106b1578091506106d2565b6000600454600354866106c491906111f7565b6106ce919061120e565b9350505b6000610711600354600554866106e891906111f7565b6106f2919061120e565b60045460055461070290876111f7565b61070c919061120e565b610e44565b336000908152600a6020526040812080549293508392909190610735908490611230565b92505081905550806005600082825461074e9190611230565b9250508190555083600360008282546107679190611230565b9250508190555082600460008282546107809190611230565b909155505050505b81156107a6576001546107a6906001600160a01b0316333085610e5c565b80156107c4576002546107c4906001600160a01b0316333084610e5c565b336000818152600a60209081526040918290205482518681529182018590528183015290517f64b83944e79c3ce8d4c297411de637c3e102d064677aac0c163976ebdcd6f50e9181900360600190a250505050565b6001546001600160a01b038481169116148061084257506002546001600160a01b038481169116145b61087e5760405162461bcd60e51b815260206004820152600d60248201526c24b73b30b634b2103a37b5b2b760991b6044820152606401610513565b60015460009081906001600160a01b038681169116146108a3576004546003546108aa565b6003546004545b915091506000821180156108be5750600081115b6109035760405162461bcd60e51b8152602060048201526016602482015275496e73756666696369656e74206c697175696469747960501b6044820152606401610513565b60006103e86109136003826111e4565b61091d90876111f7565b610927919061120e565b9050600061093582876111e4565b905060006109438386611230565b61094d85856111f7565b610957919061120e565b9050858110156109a95760405162461bcd60e51b815260206004820152601a60248201527f496e73756666696369656e74206f757470757420616d6f756e740000000000006044820152606401610513565b6001546001600160a01b0390811690891603610a3c576001546109d7906001600160a01b031633308a610e5c565b81600660008282546109e99190611230565b925050819055508260036000828254610a029190611230565b925050819055508060046000828254610a1b91906111e4565b9091555050600254610a37906001600160a01b03163383610ddc565b610ab4565b600254610a54906001600160a01b031633308a610e5c565b8160076000828254610a669190611230565b925050819055508260046000828254610a7f9190611230565b925050819055508060036000828254610a9891906111e4565b9091555050600154610ab4906001600160a01b03163383610ddc565b60408051888152602081018390526001600160a01b038a169133917fa078c4190abe07940190effc1846be0ccf03ad6007bc9e93f9697d0b460befbb910160405180910390a35050505050505050565b336000908152600a6020526040902054610b585760405162461bcd60e51b81526020600482015260156024820152742737903634b8bab4b234ba3c903837b9b4ba34b7b760591b6044820152606401610513565b600554336000908152600a6020526040812054909190610b7a906127106111f7565b610b84919061120e565b33600090815260086020526040812054600654929350909161271090610bab9085906111f7565b610bb5919061120e565b610bbf91906111e4565b33600090815260096020526040812054600754929350909161271090610be69086906111f7565b610bf0919061120e565b610bfa91906111e4565b33600090815260086020526040812080549293508492909190610c1e908490611230565b90915550503360009081526009602052604081208054839290610c42908490611230565b90915550508115610c6457600154610c64906001600160a01b03163384610ddc565b8015610c8157600254610c81906001600160a01b03163383610ddc565b604080518381526020810183905233917f1ac537f0ad67b64ac68a04587ff3a4cb6977de22eb2c37ee560897a92c6d07c79101610642565b610cc1610d32565b6001600160a01b038116610d265760405162461bcd60e51b815260206004820152602660248201527f4f776e61626c653a206e6577206f776e657220697320746865207a65726f206160448201526564647265737360d01b6064820152608401610513565b610d2f81610d8c565b50565b6000546001600160a01b031633146104bd5760405162461bcd60e51b815260206004820181905260248201527f4f776e61626c653a2063616c6c6572206973206e6f7420746865206f776e65726044820152606401610513565b600080546001600160a01b038381166001600160a01b0319831681178455604051919092169283917f8be0079c531659141344cd1fd0a4f28419497f9722a3daafe3b4186f6b6457e09190a35050565b6040516001600160a01b038316602482015260448101829052610e3f90849063a9059cbb60e01b906064015b60408051601f198184030181529190526020810180516001600160e01b03166001600160e01b031990931692909217909152610e9a565b505050565b6000818310610e535781610e55565b825b9392505050565b6040516001600160a01b0380851660248301528316604482015260648101829052610e949085906323b872dd60e01b90608401610e08565b50505050565b6000610eef826040518060400160405280602081526020017f5361666545524332303a206c6f772d6c6576656c2063616c6c206661696c6564815250856001600160a01b0316610f6f9092919063ffffffff16565b9050805160001480610f10575080806020019051810190610f109190611243565b610e3f5760405162461bcd60e51b815260206004820152602a60248201527f5361666545524332303a204552433230206f7065726174696f6e20646964206e6044820152691bdd081cdd58d8d9595960b21b6064820152608401610513565b6060610f7e8484600085610f86565b949350505050565b606082471015610fe75760405162461bcd60e51b815260206004820152602660248201527f416464726573733a20696e73756666696369656e742062616c616e636520666f6044820152651c8818d85b1b60d21b6064820152608401610513565b600080866001600160a01b031685876040516110039190611289565b60006040518083038185875af1925050503d8060008114611040576040519150601f19603f3d011682016040523d82523d6000602084013e611045565b606091505b509150915061105687838387611061565b979650505050505050565b606083156110d05782516000036110c9576001600160a01b0385163b6110c95760405162461bcd60e51b815260206004820152601d60248201527f416464726573733a2063616c6c20746f206e6f6e2d636f6e74726163740000006044820152606401610513565b5081610f7e565b610f7e83838151156110e55781518083602001fd5b8060405162461bcd60e51b815260040161051391906112a5565b80356001600160a01b038116811461111657600080fd5b919050565b6000806040838503121561112e57600080fd5b611137836110ff565b946020939093013593505050565b60006020828403121561115757600080fd5b610e55826110ff565b60006020828403121561117257600080fd5b5035919050565b6000806040838503121561118c57600080fd5b50508035926020909101359150565b6000806000606084860312156111b057600080fd5b6111b9846110ff565b95602085013595506040909401359392505050565b634e487b7160e01b600052601160045260246000fd5b818103818111156103ca576103ca6111ce565b80820281158282048414176103ca576103ca6111ce565b60008261122b57634e487b7160e01b600052601260045260246000fd5b500490565b808201808211156103ca576103ca6111ce565b60006020828403121561125557600080fd5b81518015158114610e5557600080fd5b60005b83811015611280578181015183820152602001611268565b50506000910152565b6000825161129b818460208701611265565b9190910192915050565b60208152600082518060208401526112c4816040850160208701611265565b601f01601f1916919091016040019291505056fea2646970667358221220d8a8b149e8efc183c6fa2522c3c254416e789634832a2a1c568d224790ec0cfc64736f6c63430008130033a264697066735822122051df8173d2da286cdcd7dad4e924bffe66d3a63b560c9f60e0b6659a96a9ba1964736f6c63430008130033",
  "devdoc": {
    "kind": "dev",
    "methods": {
      "owner()": {
        "details": "Returns the address of the current owner."
      },
      "renounceOwnership()": {
        "details": "Leaves the contract without owner. It will not be possible to call `onlyOwner` functions. Can only be called by the current owner. NOTE: Renouncing ownership will leave the contract without an owner, thereby disabling any functionality that is only available to the owner."
      },
      "transferOwnership(address)": {
        "details": "Transfers ownership of the contract to a new account (`newOwner`). Can only be called by the current owner."
      }
    },
    "version": 1
  },
  "userdoc": {
    "kind": "user",
    "methods": {},
    "version": 1
  },
  "storageLayout": {
    "storage": [
      {
        "astId": 7,
        "contract": "contracts/DEXFactory.sol:DEXFactory",
        "label": "_owner",
        "offset": 0,
        "slot": "0",
        "type": "t_address"
      },
      {
        "astId": 1832,
        "contract": "contracts/DEXFactory.sol:DEXFactory",
        "label": "getPair",
        "offset": 0,
        "slot": "1",
        "type": "t_mapping(t_address,t_mapping(t_address,t_address))"
      },
      {
        "astId": 1835,
        "contract": "contracts/DEXFactory.sol:DEXFactory",
        "label": "allPairs",
        "offset": 0,
        "slot": "2",
        "type": "t_array(t_address)dyn_storage"
      }
    ],
    "types": {
      "t_address": {
        "encoding": "inplace",
        "label": "address",
        "numberOfBytes": "20"
      },
      "t_array(t_address)dyn_storage": {
        "base": "t_address",
        "encoding": "dynamic_array",
        "label": "address[]",
        "numberOfBytes": "32"
      },
      "t_mapping(t_address,t_address)": {
        "encoding": "mapping",
        "key": "t_address",
        "label": "mapping(address => address)",
        "numberOfBytes": "32",
        "value": "t_address"
      },
      "t_mapping(t_address,t_mapping(t_address,t_address))": {
        "encoding": "mapping",
        "key": "t_address",
        "label": "mapping(address => mapping(address => address))",
        "numberOfBytes": "32",
        "value": "t_mapping(t_address,t_address)"
      }
    }
  }
}