{
  "address": "0xA985351750f7D70EAcb2C0A2C5cf88951Ba9C1C3",
  "abi": [
    {
      "inputs": [
        {
          "internalType": "address",
          "name": "_nft",
          "type": "address"
        },
        {
          "internalType": "address payable",
          "name": "_feeRecipient",
          "type": "address"
        }
      ],
      "stateMutability": "nonpayable",
      "type": "constructor"
    },
    {
      "anonymous": false,
      "inputs": [
        {
          "indexed": true,
          "internalType": "uint256",
          "name": "tokenId",
          "type": "uint256"
        },
        {
          "indexed": true,
          "internalType": "address",
          "name": "seller",
          "type": "address"
        }
      ],
      "name": "ItemCanceled",
      "type": "event"
    },
    {
      "anonymous": false,
      "inputs": [
        {
          "indexed": true,
          "internalType": "uint256",
          "name": "tokenId",
          "type": "uint256"
        },
        {
          "indexed": true,
          "internalType": "address",
          "name": "seller",
          "type": "address"
        },
        {
          "indexed": false,
          "internalType": "uint256",
          "name": "price",
          "type": "uint256"
        }
      ],
      "name": "ItemListed",
      "type": "event"
    },
    {
      "anonymous": false,
      "inputs": [
        {
          "indexed": true,
          "internalType": "uint256",
          "name": "tokenId",
          "type": "uint256"
        },
        {
          "indexed": true,
          "internalType": "address",
          "name": "seller",
          "type": "address"
        },
        {
          "indexed": true,
          "internalType": "address",
          "name": "buyer",
          "type": "address"
        },
        {
          "indexed": false,
          "internalType": "uint256",
          "name": "price",
          "type": "uint256"
        }
      ],
      "name": "ItemSold",
      "type": "event"
    },
    {
      "anonymous": false,
      "inputs": [
        {
          "indexed": true,
          "internalType": "address",
          "name": "previousOwner",
          "type": "address"
        },
        {
          "indexed": true,
          "internalType": "address",
          "name": "newOwner",
          "type": "address"
        }
      ],
      "name": "OwnershipTransferred",
      "type": "event"
    },
    {
      "inputs": [],
      "name": "BPS",
      "outputs": [
        {
          "internalType": "uint256",
          "name": "",
          "type": "uint256"
        }
      ],
      "stateMutability": "view",
      "type": "function"
    },
    {
      "inputs": [],
      "name": "FEE_BPS",
      "outputs": [
        {
          "internalType": "uint256",
          "name": "",
          "type": "uint256"
        }
      ],
      "stateMutability": "view",
      "type": "function"
    },
    {
      "inputs": [
        {
          "internalType": "uint256",
          "name": "tokenId",
          "type": "uint256"
        }
      ],
      "name": "buyItem",
      "outputs": [],
      "stateMutability": "payable",
      "type": "function"
    },
    {
      "inputs": [
        {
          "internalType": "uint256",
          "name": "tokenId",
          "type": "uint256"
        }
      ],
      "name": "cancelListing",
      "outputs": [],
      "stateMutability": "nonpayable",
      "type": "function"
    },
    {
      "inputs": [],
      "name": "feeRecipient",
      "outputs": [
        {
          "internalType": "address payable",
          "name": "",
          "type": "address"
        }
      ],
      "stateMutability": "view",
      "type": "function"
    },
    {
      "inputs": [
        {
          "internalType": "uint256",
          "name": "tokenId",
          "type": "uint256"
        },
        {
          "internalType": "uint256",
          "name": "price",
          "type": "uint256"
        }
      ],
      "name": "listItem",
      "outputs": [],
      "stateMutability": "nonpayable",
      "type": "function"
    },
    {
      "inputs": [
        {
          "internalType": "uint256",
          "name": "",
          "type": "uint256"
        }
      ],
      "name": "listings",
      "outputs": [
        {
          "internalType": "uint256",
          "name": "tokenId",
          "type": "uint256"
        },
        {
          "internalType": "address",
          "name": "seller",
          "type": "address"
        },
        {
          "internalType": "uint256",
          "name": "price",
          "type": "uint256"
        },
        {
          "internalType": "bool",
          "name": "active",
          "type": "bool"
        }
      ],
      "stateMutability": "view",
      "type": "function"
    },
    {
      "inputs": [],
      "name": "nft",
      "outputs": [
        {
          "internalType": "contract IERC721",
          "name": "",
          "type": "address"
        }
      ],
      "stateMutability": "view",
      "type": "function"
    },
    {
      "inputs": [
        {
          "internalType": "address",
          "name": "",
          "type": "address"
        },
        {
          "internalType": "address",
          "name": "",
          "type": "address"
        },
        {
          "internalType": "uint256",
          "name": "",
          "type": "uint256"
        },
        {
          "internalType": "bytes",
          "name": "",
          "type": "bytes"
        }
      ],
      "name": "onERC721Received",
      "outputs": [
        {
          "internalType": "bytes4",
          "name": "",
          "type": "bytes4"
        }
      ],
      "stateMutability": "pure",
      "type": "function"
    },
    {
      "inputs": [],
      "name": "owner",
      "outputs": [
        {
          "internalType": "address",
          "name": "",
          "type": "address"
        }
      ],
      "stateMutability": "view",
      "type": "function"
    },
    {
      "inputs": [],
      "name": "renounceOwnership",
      "outputs": [],
      "stateMutability": "nonpayable",
      "type": "function"
    },
    {
      "inputs": [
        {
          "internalType": "address",
          "name": "newOwner",
          "type": "address"
        }
      ],
      "name": "transferOwnership",
      "outputs": [],
      "stateMutability": "nonpayable",
      "type": "function"
    }
  ],
  "transactionHash": "0xe7c2d70d5bc0c9dae430dc3f2bae3eb398392d6934c4d11d17163c8c12122f63",
  "args": [
    "0xfF0404DeB51Ed6f4F42cCd29cF5Ec29e2acD5067",
    "0x8D3777B35b6ba02E88De8fdd07982c4514A8bb65"
  ],
  "numDeployments": 1,
  "solcInputHash": "8be7f73ae018c1b3d1bf556558d2342b",
  "bytecode": "0x60a060405234801561001057600080fd5b50604051610e25380380610e2583398101604081905261002f916100c5565b6100383361005d565b600180546001600160a01b0319166001600160a01b03938416179055166080526100ff565b600080546001600160a01b038381166001600160a01b0319831681178455604051919092169283917f8be0079c531659141344cd1fd0a4f28419497f9722a3daafe3b4186f6b6457e09190a35050565b6001600160a01b03811681146100c257600080fd5b50565b600080604083850312156100d857600080fd5b82516100e3816100ad565b60208401519092506100f4816100ad565b809150509250929050565b608051610d046101216000396000818161014e01526108a70152610d046000f3fe6080604052600436106100a75760003560e01c8063883efa6711610064578063883efa67146101bd5780638da5cb5b146101dd578063bf333f2c146101fb578063de74e57b14610210578063e7fb74c71461028a578063f2fde38b1461029d57600080fd5b8063150b7a02146100ac578063249d39e9146100f6578063305a67a81461011a578063469048401461013c57806347ccca0214610188578063715018a6146101a8575b600080fd5b3480156100b857600080fd5b506100d86100c7366004610b2f565b630a85bd0160e11b95945050505050565b6040516001600160e01b031990911681526020015b60405180910390f35b34801561010257600080fd5b5061010c61271081565b6040519081526020016100ed565b34801561012657600080fd5b5061013a610135366004610bce565b6102bd565b005b34801561014857600080fd5b506101707f000000000000000000000000000000000000000000000000000000000000000081565b6040516001600160a01b0390911681526020016100ed565b34801561019457600080fd5b50600154610170906001600160a01b031681565b3480156101b457600080fd5b5061013a6103f7565b3480156101c957600080fd5b5061013a6101d8366004610be7565b61040b565b3480156101e957600080fd5b506000546001600160a01b0316610170565b34801561020757600080fd5b5061010c606481565b34801561021c57600080fd5b5061026061022b366004610bce565b6002602081905260009182526040909120805460018201549282015460039092015490926001600160a01b0316919060ff1684565b604080519485526001600160a01b03909316602085015291830152151560608201526080016100ed565b61013a610298366004610bce565b6106e8565b3480156102a957600080fd5b5061013a6102b8366004610c09565b6109ca565b60008181526002602081815260409283902083516080810185528154815260018201546001600160a01b03169281019290925291820154928101929092526003015460ff161515606082018190526103495760405162461bcd60e51b815260206004820152600a602482015269139bdd081b1a5cdd195960b21b60448201526064015b60405180910390fd5b60208101516001600160a01b031633146103925760405162461bcd60e51b815260206004820152600a6024820152692737ba1039b2b63632b960b11b6044820152606401610340565b600082815260026020819052604080832060038101805460ff191690558381556001810180546001600160a01b031916905590910182905551339184917f5cb412c9620981e00377453c7d6131d2122a006cd48f53786863f87020c8b5699190a35050565b6103ff610a43565b6104096000610a9d565b565b6001546040516331a9108f60e11b81526004810184905233916001600160a01b031690636352211e90602401602060405180830381865afa158015610454573d6000803e3d6000fd5b505050506040513d601f19601f820116820180604052508101906104789190610c2d565b6001600160a01b0316146104ba5760405162461bcd60e51b81526020600482015260096024820152682737ba1037bbb732b960b91b6044820152606401610340565b60015460405163020604bf60e21b81526004810184905230916001600160a01b03169063081812fc90602401602060405180830381865afa158015610503573d6000803e3d6000fd5b505050506040513d601f19601f820116820180604052508101906105279190610c2d565b6001600160a01b031614806105a9575060015460405163e985e9c560e01b81523360048201523060248201526001600160a01b039091169063e985e9c590604401602060405180830381865afa158015610585573d6000803e3d6000fd5b505050506040513d601f19601f820116820180604052508101906105a99190610c4a565b6105f55760405162461bcd60e51b815260206004820152601860248201527f4d61726b6574706c616365206e6f7420617070726f76656400000000000000006044820152606401610340565b600081116106395760405162461bcd60e51b815260206004820152601160248201527005072696365206d757374206265203e203607c1b6044820152606401610340565b6040805160808101825283815233602080830182815283850186815260016060860181815260008a815260028087529089902097518855935191870180546001600160a01b0319166001600160a01b0390931692909217909155905191850191909155516003909301805460ff191693151593909317909255915183815284917fc93edc6ee14cd6c0c2842099adfa8953b237dbdad304ba28e96dce8a7f2a828c910160405180910390a35050565b60008181526002602081815260409283902083516080810185528154815260018201546001600160a01b03169281019290925291820154928101929092526003015460ff161515606082018190526107715760405162461bcd60e51b815260206004820152600c60248201526b4e6f7420666f722073616c6560a01b6044820152606401610340565b80604001513410156107bc5760405162461bcd60e51b8152602060048201526014602482015273125b9cdd59999a58da595b9d081c185e5b595b9d60621b6044820152606401610340565b6020810151604082015160006107df6127106107d9846064610aed565b90610b02565b905060006107ed8383610b0e565b600087815260026020819052604080832060038101805460ff19169055838155600180820180546001600160a01b0319169055920192909255549051632142170760e11b81526001600160a01b038781166004830152336024830152604482018a90529293509116906342842e0e90606401600060405180830381600087803b15801561087957600080fd5b505af115801561088d573d6000803e3d6000fd5b5050505060008211156108f2576040516001600160a01b037f0000000000000000000000000000000000000000000000000000000000000000169083156108fc029084906000818181858888f193505050501580156108f0573d6000803e3d6000fd5b505b8015610930576040516001600160a01b0385169082156108fc029083906000818181858888f1935050505015801561092e573d6000803e3d6000fd5b505b600061093c3485610b0e565b9050801561097357604051339082156108fc029083906000818181858888f19350505050158015610971573d6000803e3d6000fd5b505b336001600160a01b0316856001600160a01b0316887f04ddd54c6b746e69ba87f862311f7670bd1d7276846778ac81cd38747b27a746876040516109b991815260200190565b60405180910390a450505050505050565b6109d2610a43565b6001600160a01b038116610a375760405162461bcd60e51b815260206004820152602660248201527f4f776e61626c653a206e6577206f776e657220697320746865207a65726f206160448201526564647265737360d01b6064820152608401610340565b610a4081610a9d565b50565b6000546001600160a01b031633146104095760405162461bcd60e51b815260206004820181905260248201527f4f776e61626c653a2063616c6c6572206973206e6f7420746865206f776e65726044820152606401610340565b600080546001600160a01b038381166001600160a01b0319831681178455604051919092169283917f8be0079c531659141344cd1fd0a4f28419497f9722a3daafe3b4186f6b6457e09190a35050565b6000610af98284610c82565b90505b92915050565b6000610af98284610c99565b6000610af98284610cbb565b6001600160a01b0381168114610a4057600080fd5b600080600080600060808688031215610b4757600080fd5b8535610b5281610b1a565b94506020860135610b6281610b1a565b935060408601359250606086013567ffffffffffffffff80821115610b8657600080fd5b818801915088601f830112610b9a57600080fd5b813581811115610ba957600080fd5b896020828501011115610bbb57600080fd5b9699959850939650602001949392505050565b600060208284031215610be057600080fd5b5035919050565b60008060408385031215610bfa57600080fd5b50508035926020909101359150565b600060208284031215610c1b57600080fd5b8135610c2681610b1a565b9392505050565b600060208284031215610c3f57600080fd5b8151610c2681610b1a565b600060208284031215610c5c57600080fd5b81518015158114610c2657600080fd5b634e487b7160e01b600052601160045260246000fd5b8082028115828204841417610afc57610afc610c6c565b600082610cb657634e487b7160e01b600052601260045260246000fd5b500490565b81810381811115610afc57610afc610c6c56fea264697066735822122078e9e06e35f82a10b4e056bdc6b54b8fc5fbeb346c72978c8630e5bda449313064736f6c63430008130033",
  "devdoc": {
    "kind": "dev",
    "methods": {
      "owner()": {
        "details": "Returns the address of the current owner."
      },
      "renounceOwnership()": {
        "details": "Leaves the contract without owner. It will not be possible to call `onlyOwner` functions. Can only be called by the current owner. NOTE: Renouncing ownership will leave the contract without an owner, thereby disabling any functionality that is only available to the owner."
      },
      "transferOwnership(address)": {
        "details": "Transfers ownership of the contract to a new account (`newOwner`). Can only be called by the current owner."
      }
    },
    "version": 1
  },
  "userdoc": {
    "kind": "user",
    "methods": {},
    "version": 1
  },
  "storageLayout": {
    "storage": [
      {
        "astId": 7,
        "contract": "contracts/NFTMarketplace.sol:NFTMarketplace",
        "label": "_owner",
        "offset": 0,
        "slot": "0",
        "type": "t_address"
      },
      {
        "astId": 6283,
        "contract": "contracts/NFTMarketplace.sol:NFTMarketplace",
        "label": "nft",
        "offset": 0,
        "slot": "1",
        "type": "t_contract(IERC721)2257"
      },
      {
        "astId": 6305,
        "contract": "contracts/NFTMarketplace.sol:NFTMarketplace",
        "label": "listings",
        "offset": 0,
        "slot": "2",
        "type": "t_mapping(t_uint256,t_struct(Listing)6300_storage)"
      }
    ],
    "types": {
      "t_address": {
        "encoding": "inplace",
        "label": "address",
        "numberOfBytes": "20"
      },
      "t_bool": {
        "encoding": "inplace",
        "label": "bool",
        "numberOfBytes": "1"
      },
      "t_contract(IERC721)2257": {
        "encoding": "inplace",
        "label": "contract IERC721",
        "numberOfBytes": "20"
      },
      "t_mapping(t_uint256,t_struct(Listing)6300_storage)": {
        "encoding": "mapping",
        "key": "t_uint256",
        "label": "mapping(uint256 => struct NFTMarketplace.Listing)",
        "numberOfBytes": "32",
        "value": "t_struct(Listing)6300_storage"
      },
      "t_struct(Listing)6300_storage": {
        "encoding": "inplace",
        "label": "struct NFTMarketplace.Listing",
        "members": [
          {
            "astId": 6293,
            "contract": "contracts/NFTMarketplace.sol:NFTMarketplace",
            "label": "tokenId",
            "offset": 0,
            "slot": "0",
            "type": "t_uint256"
          },
          {
            "astId": 6295,
            "contract": "contracts/NFTMarketplace.sol:NFTMarketplace",
            "label": "seller",
            "offset": 0,
            "slot": "1",
            "type": "t_address"
          },
          {
            "astId": 6297,
            "contract": "contracts/NFTMarketplace.sol:NFTMarketplace",
            "label": "price",
            "offset": 0,
            "slot": "2",
            "type": "t_uint256"
          },
          {
            "astId": 6299,
            "contract": "contracts/NFTMarketplace.sol:NFTMarketplace",
            "label": "active",
            "offset": 0,
            "slot": "3",
            "type": "t_bool"
          }
        ],
        "numberOfBytes": "128"
      },
      "t_uint256": {
        "encoding": "inplace",
        "label": "uint256",
        "numberOfBytes": "32"
      }
    }
  }
}