{
  "address": "0x34b1eb044B4c801c8932D548D0e98cc92436201E",
  "abi": [
    {
      "inputs": [
        {
          "internalType": "address",
          "name": "_nft",
          "type": "address"
        },
        {
          "internalType": "address",
          "name": "_paymentToken",
          "type": "address"
        },
        {
          "internalType": "address",
          "name": "_feeRecipient",
          "type": "address"
        }
      ],
      "stateMutability": "nonpayable",
      "type": "constructor"
    },
    {
      "anonymous": false,
      "inputs": [
        {
          "indexed": true,
          "internalType": "uint256",
          "name": "tokenId",
          "type": "uint256"
        },
        {
          "indexed": true,
          "internalType": "address",
          "name": "seller",
          "type": "address"
        }
      ],
      "name": "ItemCanceled",
      "type": "event"
    },
    {
      "anonymous": false,
      "inputs": [
        {
          "indexed": true,
          "internalType": "uint256",
          "name": "tokenId",
          "type": "uint256"
        },
        {
          "indexed": true,
          "internalType": "address",
          "name": "seller",
          "type": "address"
        },
        {
          "indexed": false,
          "internalType": "uint256",
          "name": "price",
          "type": "uint256"
        }
      ],
      "name": "ItemListed",
      "type": "event"
    },
    {
      "anonymous": false,
      "inputs": [
        {
          "indexed": true,
          "internalType": "uint256",
          "name": "tokenId",
          "type": "uint256"
        },
        {
          "indexed": true,
          "internalType": "address",
          "name": "seller",
          "type": "address"
        },
        {
          "indexed": true,
          "internalType": "address",
          "name": "buyer",
          "type": "address"
        },
        {
          "indexed": false,
          "internalType": "uint256",
          "name": "price",
          "type": "uint256"
        }
      ],
      "name": "ItemSold",
      "type": "event"
    },
    {
      "anonymous": false,
      "inputs": [
        {
          "indexed": true,
          "internalType": "address",
          "name": "previousOwner",
          "type": "address"
        },
        {
          "indexed": true,
          "internalType": "address",
          "name": "newOwner",
          "type": "address"
        }
      ],
      "name": "OwnershipTransferred",
      "type": "event"
    },
    {
      "inputs": [],
      "name": "BPS",
      "outputs": [
        {
          "internalType": "uint256",
          "name": "",
          "type": "uint256"
        }
      ],
      "stateMutability": "view",
      "type": "function"
    },
    {
      "inputs": [],
      "name": "FEE_BPS",
      "outputs": [
        {
          "internalType": "uint256",
          "name": "",
          "type": "uint256"
        }
      ],
      "stateMutability": "view",
      "type": "function"
    },
    {
      "inputs": [
        {
          "internalType": "uint256",
          "name": "tokenId",
          "type": "uint256"
        }
      ],
      "name": "buyItem",
      "outputs": [],
      "stateMutability": "nonpayable",
      "type": "function"
    },
    {
      "inputs": [
        {
          "internalType": "uint256",
          "name": "tokenId",
          "type": "uint256"
        }
      ],
      "name": "cancelListing",
      "outputs": [],
      "stateMutability": "nonpayable",
      "type": "function"
    },
    {
      "inputs": [],
      "name": "feeRecipient",
      "outputs": [
        {
          "internalType": "address",
          "name": "",
          "type": "address"
        }
      ],
      "stateMutability": "view",
      "type": "function"
    },
    {
      "inputs": [
        {
          "internalType": "uint256",
          "name": "tokenId",
          "type": "uint256"
        },
        {
          "internalType": "uint256",
          "name": "price",
          "type": "uint256"
        }
      ],
      "name": "listItem",
      "outputs": [],
      "stateMutability": "nonpayable",
      "type": "function"
    },
    {
      "inputs": [
        {
          "internalType": "uint256",
          "name": "",
          "type": "uint256"
        }
      ],
      "name": "listings",
      "outputs": [
        {
          "internalType": "uint256",
          "name": "tokenId",
          "type": "uint256"
        },
        {
          "internalType": "address",
          "name": "seller",
          "type": "address"
        },
        {
          "internalType": "uint256",
          "name": "price",
          "type": "uint256"
        },
        {
          "internalType": "bool",
          "name": "active",
          "type": "bool"
        }
      ],
      "stateMutability": "view",
      "type": "function"
    },
    {
      "inputs": [],
      "name": "nft",
      "outputs": [
        {
          "internalType": "contract IERC721",
          "name": "",
          "type": "address"
        }
      ],
      "stateMutability": "view",
      "type": "function"
    },
    {
      "inputs": [
        {
          "internalType": "address",
          "name": "",
          "type": "address"
        },
        {
          "internalType": "address",
          "name": "",
          "type": "address"
        },
        {
          "internalType": "uint256",
          "name": "",
          "type": "uint256"
        },
        {
          "internalType": "bytes",
          "name": "",
          "type": "bytes"
        }
      ],
      "name": "onERC721Received",
      "outputs": [
        {
          "internalType": "bytes4",
          "name": "",
          "type": "bytes4"
        }
      ],
      "stateMutability": "pure",
      "type": "function"
    },
    {
      "inputs": [],
      "name": "owner",
      "outputs": [
        {
          "internalType": "address",
          "name": "",
          "type": "address"
        }
      ],
      "stateMutability": "view",
      "type": "function"
    },
    {
      "inputs": [],
      "name": "paymentToken",
      "outputs": [
        {
          "internalType": "contract IERC20",
          "name": "",
          "type": "address"
        }
      ],
      "stateMutability": "view",
      "type": "function"
    },
    {
      "inputs": [],
      "name": "renounceOwnership",
      "outputs": [],
      "stateMutability": "nonpayable",
      "type": "function"
    },
    {
      "inputs": [
        {
          "internalType": "address",
          "name": "newOwner",
          "type": "address"
        }
      ],
      "name": "transferOwnership",
      "outputs": [],
      "stateMutability": "nonpayable",
      "type": "function"
    }
  ],
  "transactionHash": "0x5b6dd1f9296190d234bf9ac699b663feecb7c0f91cf771a2bcaaa460bfa05e3f",
  "args": [
    "0xdF31D2E3c465289f09C83d9731d2125CFB16020f",
    "0xADb64775Fc297B7D3762c6CB7fA0D41099Cd2d73",
    "0x8D3777B35b6ba02E88De8fdd07982c4514A8bb65"
  ],
  "numDeployments": 2,
  "solcInputHash": "6c54a8394d621ec77a57ee042be860cd",
  "bytecode": "0x60a060405234801561001057600080fd5b5060405161106038038061106083398101604081905261002f916100dd565b61003833610071565b600180546001600160a01b03199081166001600160a01b0395861617909155600280549091169284169290921790915516608052610120565b600080546001600160a01b038381166001600160a01b0319831681178455604051919092169283917f8be0079c531659141344cd1fd0a4f28419497f9722a3daafe3b4186f6b6457e09190a35050565b80516001600160a01b03811681146100d857600080fd5b919050565b6000806000606084860312156100f257600080fd5b6100fb846100c1565b9250610109602085016100c1565b9150610117604085016100c1565b90509250925092565b608051610f1e6101426000396000818161016d01526109e70152610f1e6000f3fe608060405234801561001057600080fd5b50600436106100cf5760003560e01c8063715018a61161008c578063bf333f2c11610066578063bf333f2c146101ce578063de74e57b146101d6578063e7fb74c714610243578063f2fde38b1461025657600080fd5b8063715018a6146101a2578063883efa67146101aa5780638da5cb5b146101bd57600080fd5b8063150b7a02146100d4578063249d39e9146101115780633013ce2914610128578063305a67a814610153578063469048401461016857806347ccca021461018f575b600080fd5b6100f36100e2366004610d30565b630a85bd0160e11b95945050505050565b6040516001600160e01b031990911681526020015b60405180910390f35b61011a61271081565b604051908152602001610108565b60025461013b906001600160a01b031681565b6040516001600160a01b039091168152602001610108565b610166610161366004610dcf565b610269565b005b61013b7f000000000000000000000000000000000000000000000000000000000000000081565b60015461013b906001600160a01b031681565b6101666103a4565b6101666101b8366004610de8565b6103b8565b6000546001600160a01b031661013b565b61011a606481565b6102196101e4366004610dcf565b6003602081905260009182526040909120805460018201546002830154929093015490926001600160a01b0316919060ff1684565b604080519485526001600160a01b0390931660208501529183015215156060820152608001610108565b610166610251366004610dcf565b610690565b610166610264366004610e0a565b610bcb565b60008181526003602081815260409283902083516080810185528154815260018201546001600160a01b03169281019290925260028101549382019390935291015460ff161515606082018190526102f55760405162461bcd60e51b815260206004820152600a602482015269139bdd081b1a5cdd195960b21b60448201526064015b60405180910390fd5b60208101516001600160a01b0316331461033e5760405162461bcd60e51b815260206004820152600a6024820152692737ba1039b2b63632b960b11b60448201526064016102ec565b6000828152600360208190526040808320918201805460ff191690558282556001820180546001600160a01b0319169055600290910182905551339184917f5cb412c9620981e00377453c7d6131d2122a006cd48f53786863f87020c8b5699190a35050565b6103ac610c44565b6103b66000610c9e565b565b6001546040516331a9108f60e11b81526004810184905233916001600160a01b031690636352211e90602401602060405180830381865afa158015610401573d6000803e3d6000fd5b505050506040513d601f19601f820116820180604052508101906104259190610e2e565b6001600160a01b0316146104675760405162461bcd60e51b81526020600482015260096024820152682737ba1037bbb732b960b91b60448201526064016102ec565b60015460405163020604bf60e21b81526004810184905230916001600160a01b03169063081812fc90602401602060405180830381865afa1580156104b0573d6000803e3d6000fd5b505050506040513d601f19601f820116820180604052508101906104d49190610e2e565b6001600160a01b03161480610556575060015460405163e985e9c560e01b81523360048201523060248201526001600160a01b039091169063e985e9c590604401602060405180830381865afa158015610532573d6000803e3d6000fd5b505050506040513d601f19601f820116820180604052508101906105569190610e4b565b6105a25760405162461bcd60e51b815260206004820152601860248201527f4d61726b6574706c616365206e6f7420617070726f766564000000000000000060448201526064016102ec565b600081116105e65760405162461bcd60e51b815260206004820152601160248201527005072696365206d757374206265203e203607c1b60448201526064016102ec565b6040805160808101825283815233602080830182815283850186815260016060860181815260008a815260038087529089902097518855935191870180546001600160a01b0319166001600160a01b039093169290921790915590516002860155519301805460ff191693151593909317909255915183815284917fc93edc6ee14cd6c0c2842099adfa8953b237dbdad304ba28e96dce8a7f2a828c910160405180910390a35050565b60008181526003602081815260409283902083516080810185528154815260018201546001600160a01b03169281019290925260028101549382019390935291015460ff161515606082018190526107195760405162461bcd60e51b815260206004820152600c60248201526b4e6f7420666f722073616c6560a01b60448201526064016102ec565b60208101516001600160a01b0316330361076a5760405162461bcd60e51b815260206004820152601260248201527110d85b9b9bdd08189d5e481bdddb8813919560721b60448201526064016102ec565b60208101516040820151600061078d612710610787846064610cee565b90610d03565b9050600061079b8383610d0f565b6002546040516370a0823160e01b815233600482015291925084916001600160a01b03909116906370a0823190602401602060405180830381865afa1580156107e8573d6000803e3d6000fd5b505050506040513d601f19601f8201168201806040525081019061080c9190610e6d565b101561085a5760405162461bcd60e51b815260206004820152601860248201527f496e73756666696369656e74205753502062616c616e6365000000000000000060448201526064016102ec565b600254604051636eb1769f60e11b815233600482015230602482015284916001600160a01b03169063dd62ed3e90604401602060405180830381865afa1580156108a8573d6000803e3d6000fd5b505050506040513d601f19601f820116820180604052508101906108cc9190610e6d565b101561091a5760405162461bcd60e51b815260206004820152601a60248201527f496e73756666696369656e742057535020616c6c6f77616e636500000000000060448201526064016102ec565b6000868152600360208190526040808320918201805460ff19169055828255600180830180546001600160a01b0319169055600290920192909255549051632142170760e11b81526001600160a01b03868116600483015233602483015260448201899052909116906342842e0e90606401600060405180830381600087803b1580156109a657600080fd5b505af11580156109ba573d6000803e3d6000fd5b505050506000821115610aa6576002546040516323b872dd60e01b81523360048201526001600160a01b037f00000000000000000000000000000000000000000000000000000000000000008116602483015260448201859052909116906323b872dd906064016020604051808303816000875af1158015610a40573d6000803e3d6000fd5b505050506040513d601f19601f82011682018060405250810190610a649190610e4b565b610aa65760405162461bcd60e51b8152602060048201526013602482015272119959481d1c985b9cd9995c8819985a5b1959606a1b60448201526064016102ec565b8015610b75576002546040516323b872dd60e01b81523360048201526001600160a01b03868116602483015260448201849052909116906323b872dd906064016020604051808303816000875af1158015610b05573d6000803e3d6000fd5b505050506040513d601f19601f82011682018060405250810190610b299190610e4b565b610b755760405162461bcd60e51b815260206004820152601760248201527f5061796d656e74207472616e73666572206661696c656400000000000000000060448201526064016102ec565b336001600160a01b0316846001600160a01b0316877f04ddd54c6b746e69ba87f862311f7670bd1d7276846778ac81cd38747b27a74686604051610bbb91815260200190565b60405180910390a4505050505050565b610bd3610c44565b6001600160a01b038116610c385760405162461bcd60e51b815260206004820152602660248201527f4f776e61626c653a206e6577206f776e657220697320746865207a65726f206160448201526564647265737360d01b60648201526084016102ec565b610c4181610c9e565b50565b6000546001600160a01b031633146103b65760405162461bcd60e51b815260206004820181905260248201527f4f776e61626c653a2063616c6c6572206973206e6f7420746865206f776e657260448201526064016102ec565b600080546001600160a01b038381166001600160a01b0319831681178455604051919092169283917f8be0079c531659141344cd1fd0a4f28419497f9722a3daafe3b4186f6b6457e09190a35050565b6000610cfa8284610e9c565b90505b92915050565b6000610cfa8284610eb3565b6000610cfa8284610ed5565b6001600160a01b0381168114610c4157600080fd5b600080600080600060808688031215610d4857600080fd5b8535610d5381610d1b565b94506020860135610d6381610d1b565b935060408601359250606086013567ffffffffffffffff80821115610d8757600080fd5b818801915088601f830112610d9b57600080fd5b813581811115610daa57600080fd5b896020828501011115610dbc57600080fd5b9699959850939650602001949392505050565b600060208284031215610de157600080fd5b5035919050565b60008060408385031215610dfb57600080fd5b50508035926020909101359150565b600060208284031215610e1c57600080fd5b8135610e2781610d1b565b9392505050565b600060208284031215610e4057600080fd5b8151610e2781610d1b565b600060208284031215610e5d57600080fd5b81518015158114610e2757600080fd5b600060208284031215610e7f57600080fd5b5051919050565b634e487b7160e01b600052601160045260246000fd5b8082028115828204841417610cfd57610cfd610e86565b600082610ed057634e487b7160e01b600052601260045260246000fd5b500490565b81810381811115610cfd57610cfd610e8656fea2646970667358221220815a765b138cb3889b6e2b41dd103616dfa7dca728a976a92563c31ea4abb8c164736f6c63430008130033",
  "devdoc": {
    "kind": "dev",
    "methods": {
      "owner()": {
        "details": "Returns the address of the current owner."
      },
      "renounceOwnership()": {
        "details": "Leaves the contract without owner. It will not be possible to call `onlyOwner` functions. Can only be called by the current owner. NOTE: Renouncing ownership will leave the contract without an owner, thereby disabling any functionality that is only available to the owner."
      },
      "transferOwnership(address)": {
        "details": "Transfers ownership of the contract to a new account (`newOwner`). Can only be called by the current owner."
      }
    },
    "version": 1
  },
  "userdoc": {
    "kind": "user",
    "methods": {},
    "version": 1
  },
  "storageLayout": {
    "storage": [
      {
        "astId": 7,
        "contract": "contracts/NFTMarketplace.sol:NFTMarketplace",
        "label": "_owner",
        "offset": 0,
        "slot": "0",
        "type": "t_address"
      },
      {
        "astId": 687,
        "contract": "contracts/NFTMarketplace.sol:NFTMarketplace",
        "label": "nft",
        "offset": 0,
        "slot": "1",
        "type": "t_contract(IERC721)306"
      },
      {
        "astId": 690,
        "contract": "contracts/NFTMarketplace.sol:NFTMarketplace",
        "label": "paymentToken",
        "offset": 0,
        "slot": "2",
        "type": "t_contract(IERC20)190"
      },
      {
        "astId": 712,
        "contract": "contracts/NFTMarketplace.sol:NFTMarketplace",
        "label": "listings",
        "offset": 0,
        "slot": "3",
        "type": "t_mapping(t_uint256,t_struct(Listing)707_storage)"
      }
    ],
    "types": {
      "t_address": {
        "encoding": "inplace",
        "label": "address",
        "numberOfBytes": "20"
      },
      "t_bool": {
        "encoding": "inplace",
        "label": "bool",
        "numberOfBytes": "1"
      },
      "t_contract(IERC20)190": {
        "encoding": "inplace",
        "label": "contract IERC20",
        "numberOfBytes": "20"
      },
      "t_contract(IERC721)306": {
        "encoding": "inplace",
        "label": "contract IERC721",
        "numberOfBytes": "20"
      },
      "t_mapping(t_uint256,t_struct(Listing)707_storage)": {
        "encoding": "mapping",
        "key": "t_uint256",
        "label": "mapping(uint256 => struct NFTMarketplace.Listing)",
        "numberOfBytes": "32",
        "value": "t_struct(Listing)707_storage"
      },
      "t_struct(Listing)707_storage": {
        "encoding": "inplace",
        "label": "struct NFTMarketplace.Listing",
        "members": [
          {
            "astId": 700,
            "contract": "contracts/NFTMarketplace.sol:NFTMarketplace",
            "label": "tokenId",
            "offset": 0,
            "slot": "0",
            "type": "t_uint256"
          },
          {
            "astId": 702,
            "contract": "contracts/NFTMarketplace.sol:NFTMarketplace",
            "label": "seller",
            "offset": 0,
            "slot": "1",
            "type": "t_address"
          },
          {
            "astId": 704,
            "contract": "contracts/NFTMarketplace.sol:NFTMarketplace",
            "label": "price",
            "offset": 0,
            "slot": "2",
            "type": "t_uint256"
          },
          {
            "astId": 706,
            "contract": "contracts/NFTMarketplace.sol:NFTMarketplace",
            "label": "active",
            "offset": 0,
            "slot": "3",
            "type": "t_bool"
          }
        ],
        "numberOfBytes": "128"
      },
      "t_uint256": {
        "encoding": "inplace",
        "label": "uint256",
        "numberOfBytes": "32"
      }
    }
  }
}